:04000000CCEF02F04F
:1000080000C015F0F2A41AD029A00DD0070E826EF8
:10001800FF0E836E8480166A2990D590FA0ED76EEB
:10002800FF0ED66E0AD0F29AD59ED580720ED76E84
:10003800FF0ED66ECD809D802980F2949EA05ED062
:10004800162A1650000A0DE19D90CD90FF0ECF6E36
:10005800DC0ECE6E9E90826A836A8490D58EF28A78
:100068004DD01750161801E181901850161801E16B
:1000780081921950161801E181941A50161801E15D
:1000880081961B50161801E181981C50161801E141
:10009800819A1D50161801E182901E50161801E130
:1000A80082921F50161801E182942050161801E11F
:1000B80083902150161801E183922250161801E10D
:1000C80083942350161801E183962450161801E1F1
:1000D80083982550161801E1839A2650161801E1D5
:1000E800839C2750161801E1839E2850161801E1B9
:1000F8008490FF0ECF6EDC0ECE6E9E9015C000F081
:020108001100E4
:10010A000B6A0A6A096A00500402F4CF09F0F3CFB5
:10011A0008F001500502F4CF0BF0F3CF0AF00050BB
:10012A000502F3500926F4500A22E86A0B2201500C
:10013A000402F3500926F4500A22E86A0B2208C086
:10014A0000F009C001F00AC002F00BC003F012006F
:10015A00220E0C6E086A096A0A6A0B6A0C06D8B47F
:10016A001FD0D8900B320A320932083203320232D7
:10017A0001320032D8A0F2D70C06D8B409D0045004
:10018A0008260550092206500A2207500B22EAD7F0
:10019A00045008260550092206500A2207500B224D
:0201AA00120041
:1001AC00016A2D50015C0BE2410E0C6EEE0E0D6ED1
:1001BC000D2EFED70C2EFCD70000012AF2D7120010
:1001CC002C6A0A0E2C5CD8B06ED12CC000F0000E3C
:1001DC00016E026E036E120E046E000E056E066E3C
:1001EC00076EB5DFBA0E0024046E050E0120056EF5
:1001FC00000E0220066E04C0F6FF05C0F7FF06C015
:10020C00F8FF0900F5CF00F000C017F0010E042430
:10021C00F66E000E0520F76E000E0620F86E090033
:10022C00F5CF00F000C018F0020E0424F66E000E9C
:10023C000520F76E000E0620F86E0900F5CF00F0D1
:10024C0000C019F0030E0424F66E000E0520F76EA4
:10025C00000E0620F86E0900F5CF00F000C01AF071
:10026C00030E0424006E000E0520016E000E062005
:10027C00026E010E0024F66E000E0120F76E000EC9
:10028C000220F86E0900F5CF00F000C01BF0030E41
:10029C000424006E000E0520016E000E0620026E76
:1002AC00020E0024F66E000E0120F76E000E0220E6
:1002BC00F86E0900F5CF00F000C01CF0060E042407
:1002CC00F66E000E0520F76E000E0620F86E090083
:1002DC00F5CF00F000C01DF0060E0424006E000ED9
:1002EC000520016E000E0620026E010E0024F66E33
:1002FC00000E0120F76E000E0220F86E0900F5CFFB
:10030C0000F000C01EF0060E0424006E000E052046
:10031C00016E000E0620026E020E0024F66E000E18
:10032C000120F76E000E0220F86E0900F5CF00F0E8
:10033C0000C01FF0090E0424F66E000E0520F76EA7
:10034C00000E0620F86E0900F5CF00F000C020F07A
:10035C00090E0424006E000E0520016E000E06200E
:10036C00026E010E0024F66E000E0120F76E000ED8
:10037C000220F86E0900F5CF00F000C021F0090E44
:10038C000424006E000E0520016E000E0620026E85
:10039C00020E0024F66E000E0120F76E000E0220F5
:1003AC00F86E0900F5CF00F000C022F00C0E04240A
:1003BC00F66E000E0520F76E000E0620F86E090092
:1003CC00F5CF00F000C023F00C0E0424006E000EDC
:1003DC000520016E000E0620026E010E0024F66E42
:1003EC00000E0120F76E000E0220F86E0900F5CF0A
:1003FC0000F000C024F00C0E0424006E000E05204A
:10040C00016E000E0620026E020E0024F66E000E27
:10041C000120F76E000E0220F86E0900F5CF00F0F7
:10042C0000C025F00F0E0424F66E000E0520F76EAA
:10043C00000E0620F86E0900F5CF00F000C026F083
:10044C000F0E0424006E000E0520016E000E062017
:10045C00026E010E0024F66E000E0120F76E000EE7
:10046C000220F86E0900F5CF00F000C027F00F0E47
:10047C000424006E000E0520016E000E0620026E94
:10048C00020E0024F66E000E0120F76E000E022004
:10049C00F86E0900F5CF00F000C028F02BC02DF04D
:0804AC007FDE2C2A8ED612001F
:1004B4000900F5CFE6FF0006FBE10106F9E11200B1
:1004C4000C0EC16E070EB46E070E926E936A946A98
:1004D400956A966A896A8A6A8B6A8C6A8D6A806A66
:1004E400826A816A836A846A6D966F86D298B56AD5
:1004F400E00EF26EF00EF16E400EF06E9D6AA06A90
:100504009E6AA16A9F6AA26A800ED56E810ECD6E24
:100514002B6A060E2B5C3DE22BC000F0000E016E30
:10052400030E046E000E056EEEDD170E0024E16E60
:10053400000E0120E26E800EE66E2BC000F0000E6D
:10054400016E030E046E000E056EDDDD170E00262F
:10055400000E0122010E0024E16E000E0120E26E65
:10056400800EE66E2BC000F0000E016E030E046ECA
:10057400000E056EC8DD170E0026000E0122020EC5
:100584000024E16E000E0120E26E800EE66E2B2A3E
:04059400C0D71200BA
:10059800166A94DF299229A20AD005D00A0E2B6E7A
:1005A80011DE05D004D02A50010AF8E0FBD7F3D7B2
:0205B800FFD76B
:1005BA000080400080400080400080400080400071
:1005CA0080400080400080400080400080400080E1
:1005DA004000804000804000804000804000804011
:1005EA000080400080400080400080400080400041
:1005FA0080400080400080400080400080400080B1
:10060A0040008040008040008040008040008040E0
:10061A000080400080400080400080400080400010
:10062A008040008040008040008040008040008080
:10063A0040008040008040008040008040008040B0
:10064A0000804000804000804000804000804000E0
:10065A008040008040008040008040008040008050
:04066A00400080408C
:020000040030CA
:0E0000002C4E3F1EFF0181FF0FC00FE00F408E
:00000001FF
